:020000040000FA
:060000000A128A110C280F
:10000800FE00030EF0000A08F1000A128A15282FD4
:100018000A128A110F280A128A11FD250A128A115A
:10002800BF000A128A11FC250A128A11FB00B601C8
:10003800B701B801B901BA01BB01BC01BD01BE01DC
:10004800F901FA0183010A128A11FB2A83120313A8
:10005800AE002A0A031D312832283728FF30AE00A7
:10006800B601B701B8016030F6008630F70080307D
:10007800F8000A128A1589260A128A11DB30F6005E
:100088008630F700C030F8000A128A1589260A124D
:100098008A111130F6008630F700D030F8000A12C5
:1000A8008A1589260A128A11C83083120313A800F8
:1000B80020300A128A11E7250A128A11C9308312E0
:1000C8000313A80020300A128A11E7250A128A11A0
:1000D800CA3083120313A80020300A128A11E725B8
:1000E8000A128A11323083120313AD000130AD02B7
:1000F8002D0A031D802881287A28C830A80064307A
:10010800F2000030F3003708F5003608F4000A1250
:100118008A1565270A128A117208303E0A128A1156
:10012800E7250A128A11C93083120313A8000A307E
:10013800A0000030A1000A30F2000030F3003708B8
:10014800F5003608F4000A128A1565270A128A1182
:10015800730883120313A3007208A2000A128A15F7
:10016800EE260A128A11831203132008303E0A125F
:100178008A11E7250A128A11CA3083120313A800CC
:100188000A30A0000030A1003708A3003608A200FA
:100198000A128A15EE260A128A11831203132008FE
:1001A800303E0A128A11E7250A128A112A30831270
:1001B80003132E060319E128E2280D2923302E0601
:1001C8000319E728E8280D292E0A0319EC28ED2839
:1001D8000D29033038020318F228F328BC29370800
:1001E800F3003608F2000A30F4000030F5000A1275
:1001F8008A1537260A128A11831203132E087207EA
:10020800B6000030031801307307B7000130B80793
:10021800BC292A302E06031D122913291729B601D5
:10022800B701B801BC2923302E06031D1C291D293E
:10023800BC290A128A15BE250A128A11A030F600B6
:100248008630F7008230F8000A128A1589260A12C9
:100258008A118830F6008630F7009030F8000A12CC
:100268008A1589260A128A11E930F6008630F700C5
:100278009D30F8000A128A1589260A128A113C3024
:1002880083120313BC001215AB299A30A8006430FE
:10029800F2000030F3003C08AB00AC012B08F4007E
:1002A8002C08F5000A128A111F250A128A117208F1
:1002B800303E0A128A11E7250A128A119B308312EE
:1002C8000313A8000A30A4000030A5000A30F20089
:1002D8000030F3003C08AB00AC012B08F4002C08FC
:1002E800F5000A128A111F250A128A11730883124F
:1002F8000313A7007208A6000A128A15A7270A1274
:100308008A11831203132408303E0A128A11E72542
:100318000A128A119C3083120313A8000A30A40021
:100328000030A5003C08AB00AC012B08A6002C0847
:10033800A7000A128A15A7270A128A118312031323
:100348002408303E0A128A11E7250A128A118312FC
:1003580003133C08031DB129B229492912110A12B5
:100368008A15BE250A128A11113083120313BF00A1
:10037800080083120313AE002A0A031DC429C529E5
:10038800CB29BA01B901FF30AE00BD01BE01003072
:10039800F6008630F7008030F8000A128A158926A0
:1003A8000A128A11D430F6008630F700C030F800FF
:1003B8000A128A1589260A128A112230F600863016
:1003C800F700D030F8000A128A1589260A128A1115
:1003D8002A30831203132E060319F329F4292A2A33
:1003E80023302E060319F929FA292A2A2E0A031975
:1003F800FE29FF292A2A0130B907033039020318D8
:10040800062A072A152A0A30F2003E080A128A1517
:10041800CF250A128A11831203132E07BE00BA01D0
:100428004B2A0530390203181A2A1B2A4B2A0A308C
:10043800F2003D080A128A15CF250A128A11831282
:1004480003132E07BD000130BA004B2A2A302E06AE
:10045800031D2F2A302A3C2A3A080319342A352A40
:10046800392ABD010230B9004B2ABE01B9014B2A15
:1004780023302E06031D412A422A4B2A071512153E
:10048800DD30BF000A128A15BE250A128A118312AE
:1004980003133A08031D512A522A652AC930A800B5
:1004A80020300A128A11E7250A128A11CA308312EB
:1004B8000313A80020300A128A11E7250A128A11AC
:1004C800772AC630A80020300A128A11E7250A12B6
:1004D8008A11C73083120313A80020300A128A1128
:1004E800E7250A128A11323083120313AD00013056
:1004F800AD022D0A031D812A822A7B2AC930A80051
:100508000A30F2000030F3003E08AB00AC012B08C3
:10051800F4002C08F5000A128A111F250A128A1104
:100528007208303E0A128A11E7250A128A11CA3067
:1005380083120313A8000A30A4000030A5003E0867
:10054800AB00AC012B08A6002C08A7000A128A15DC
:10055800A7270A128A11831203132408303E0A12AD
:100568008A11E7250A128A11C83083120313A800DA
:100578003A300A128A11E7250A128A11C630831204
:100588000313A8000A30F2000030F3003D08AB0066
:10059800AC012B08F4002C08F5000A128A111F255B
:1005A8000A128A117208303E0A128A11E7250A12C5
:1005B8008A11C73083120313A8000A30A400003040
:1005C800A5003D08AB00AC012B08A6002C08A7002D
:1005D8000A128A15A7270A128A11831203132408FC
:1005E800303E0A128A11E7250A128A11080083127E
:1005F8000313B4010A128A15F6250A128A1101306A
:100608000A128A1514260A128A1183120313B500D6
:1006180002303F06031D112B122B782B3503031DC7
:10062800162B172B442B0A128A15BE250A128A117B
:10063800113083120313BF00B4017B30F6008630FB
:10064800F700C030F8000A128A1589260A128A11A2
:10065800333083120313B300BB30B200DF30B10074
:10066800B10B342BB20B342BB30B342B0A128A1573
:10067800BE250A128A11FF3083120313BB00782BA0
:1006880002303506031D492B4A2B552B0A128A15B1
:10069800BE250A128A1183120313B4011230BF0057
:1006A8003F2B03303506031D5A2B5B2B662B0A1292
:1006B8008A15BE250A128A1183120313B401133056
:1006C800BF003F2B04303506031D6B2B6C2B782B9A
:1006D8000A128A15BE250A128A11143083120313CE
:1006E800BF000130B4003F2BDD303F06031D7D2BDA
:1006F8007E2BAA2B04303506031D832B842B982BC5
:1007080034080319882B892B072C3E081E3EBE008F
:100718003C303E02031C912B922BBB2B0130BD07B2
:100728003E08C43EBE00072C05303506031D9D2B30
:100738009E2BA12BCC30BF00072C06303506031D9D
:10074800A62BA72BBB2BBB30BF00072CCC303F06FA
:10075800031DAF2BB02B072C04303506031DB52B1A
:10076800B62BBB2B07151215DD30BF00072C072C45
:100778000A128A119F270A128A1102308312031360
:10078800BF000A128A15BE250A128A11242C0A12E1
:100798008A155C260A128A11242C3B08AA003508FF
:1007A8000A128A11BD210A128A11242C0A128A11EE
:1007B8002B240A128A11242C07111211242C071138
:1007C80012110A128A15BE250A128A1102308312E2
:1007D8000313BF00242C3B08AA0035080A128A110B
:1007E800BD210A128A11242C3B08AA0035080A12D6
:1007F8008A112A200A128A11242C0A128A1597258E
:100808000A128A11242C3F08013A0319BC2B033A17
:100818000319CB2B133A0319D12B033A0319EF2BE6
:10082800013A0319F82B073A0319012CAF3A0319B7
:10083800E32B773A0319E02B113A0319DA2B242C0E
:1008480083120313BB01032B0A128A110C28EE3002
:10085800F6008630F7008130F8000A128A158926DA
:100868000A128A118C3083120313A8000A30F2008E
:100878000030F3003E08AA00AB012A08F4002B0858
:10088800F5000A128A111F250A128A117208303ED1
:100898000A128A11E7250A128A118D30831203136E
:1008A800A8000A30A4000030A5003E08AA00AB0149
:1008B8002A08A6002B08A7000A128A15A7270A12D9
:1008C8008A11831203132408303E0A128A11E7257D
:1008D8000A128A118B3083120313A8003A300A12C5
:1008E8008A11E7250A128A11893083120313A80096
:1008F8000A30F2000030F3003D08AA00AB012A08D4
:10090800F4002B08F5000A128A111F250A128A1111
:100918007208303E0A128A11E7250A128A118A30B3
:1009280083120313A8000A30A4000030A5003D0874
:10093800AA00AB012A08A6002B08A7000A128A15EC
:10094800A7270A128A11831203132408303E0A12B9
:100958008A11E7250A128A114230F6008630F7001C
:10096800C130F8000A128A1589260A128A11AC3099
:10097800F6008630F7009130F8000A128A158926A9
:100988000A128A11E230F6008630F700D130F800FA
:100998000A128A1589260A128A11831203133D083E
:1009A800031DD72CD82C1E2D3E08031DDC2CDD2C56
:1009B8001E2D0A128A15BE250A128A1183120313E4
:1009C800121107110A128A15BE250A128A11B430AB
:1009D800F6008630F700C430F8000A128A15892616
:1009E8000A128A113230F6008630F7009030F8008B
:1009F8000A128A1589260A128A1183120313871488
:100A0800333083120313AC00BB30AB00DF30AA00D5
:100A1800AA0B0C2DAB0B0C2DAC0B0C2D8312031356
:100A280087100A128A15BE250A128A11023083120B
:100A38000313BF00080083120313A101F31F252D20
:100A4800262D2D2DF209F309F20A0319F30A0130B4
:100A5800A100F51F302D312D382DF409F509F40AC0
:100A68000319F50A0130A106A201A3017208730453
:100A780003193F2D402D752D0130A0004C2D01305C
:100A88000310F20DF30DFF3E031D442D0130A007A6
:100A9800F31F4F2D502D432D01300310A20DA30D30
:100AA800FF3E031D512D73087502031D5D2D72084D
:100AB8007402031C602D612D682D7208F4027308FE
:100AC800031CF503F502221401300310F30CF20C99
:100AD800FF3E031D692D0130A002031D742D752DE5
:100AE800502D21080319792D7A2D7F2DA209A309EC
:100AF800A20A0319A30A2308F3002208F200080037
:100B0800C330F700CD30F600F60B882DF70B882D93
:100B1800F20133300A128A15B8260A128A111B30DC
:100B2800F7009E30F600F60B972DF70B972D000077
:100B3800F20133300A128A15B8260A128A11A63031
:100B4800F600F60BA52D0000F20133300A128A15C3
:100B5800B8260A128A11B02DB12D0000F201023018
:100B68000A128A15B8260A128A11A630F600F60B60
:100B7800BB2D0000F20128300A128A15B8260A1285
:100B88008A11A630F600F60BC72D0000F2010130DD
:100B98000A128A15B8260A128A110430F7003D3065
:100BA800F600F60BD52DF70BD52DDA2DF2010C300A
:100BB8000A128A15B8260A128A11A630F600F60B10
:100BC800E32D0000080083120313A900F20128088E
:100BD8000A128A15B8260A128A11F201F20A831239
:100BE800031329080A128A15B8260A128A1108005E
:040BF800013401348F
:100C00005334453454342034543449344D34453409
:100C1000203428344D344D343A3453345334293449
:100C200000342A343A3443344C3445344134523459
:100C30002034203423343A3445344E34543445344B
:100C4000523400342A343A3443344C344534413439
:100C50005234203423343A3445344E3454344534F9
:100C60005234003445346E346A346F34793420346D
:100C700079346F347534723420346D3465346134B2
:100C80006C34003434342E345334543441345234BC
:100C900054342F3452344534533455344D34453460
:100CA00000344D346934633472346F3477346134D2
:100CB0007634653420344F34763465346E34003401
:100CC0005334453454342034543445344D34503442
:100CD00020343C342A3443343E34003433342E340C
:100CE00043346F346E347634653463347434693429
:100CF0006F346E34003450346F347734653472346A
:100D000020343D34203439343034303457340034D6
:100D1000543469346D3465342034523465346D3460
:100D200020343A342034003450346F34773465340E
:100D3000723469346E34673420344F344E340034A6
:100D40005034723465342D3448346534613474342D
:100D500069346E346734003435342E3450344134C1
:100D60005534533445340034543449344D344534C7
:100D7000203455345034003432342E3447347234F5
:100D800069346C346C34003431342E344D3469346D
:100D9000633472346F34003434342E345334743446
:100DA0006134723474340034543449344D3445342D
:100DB00020342D340034543445344D3450342034F0
:100DC0002D34003436342E34533454344F345034AC
:100DD00000347334653463343A3400345434493461
:100DE0004D344534003483120313881108158814D8
:100DF00008146430F2000030F300FF30F2070318EB
:100E0000F30AFF30F307720A031D0A2F730A031D4A
:100E10000A2F0B2FFD2E831203130618102F112FEC
:100E2000132F01309E2F8618162F172F192F0230DF
:100E30009E2F06191C2F1D2F1F2F03309E2F881544
:100E40000811881408146430F2000030F300FF30F9
:100E5000F2070318F30AFF30F307720A031D342F59
:100E6000730A031D342F352F272F831203130618FF
:100E70003A2F3B2F3D2F04309E2F8618402F412FB5
:100E8000432F05309E2F0619462F472F492F063036
:100E90009E2F88150815881008146430F200003061
:100EA000F300FF30F2070318F30AFF30F307720A6A
:100EB000031D5E2F730A031D5E2F5F2F512F8312B8
:100EC00003130618642F652F672F07309E2F86188F
:100ED0006A2F6B2F6D2F08309E2F0619702F712FE0
:100EE000732F09309E2F8815081588140810643058
:100EF000F2000030F300FF30F2070318F30AFF306E
:100F0000F307720A031D882F730A031D882F892F88
:100F10007B2F8312031306188E2F8F2F912F2A30C9
:100F20009E2F8618942F952F972F00309E2F0619ED
:100F30009A2F9B2F9D2F23309E2FFF300800831266
:100F40000313AD01AE012D08803EA800FF300A1248
:100F50008A11E7250A128A11013083120313AD07A3
:100F60000318AE0A0030AE0700302E02103003190D
:100F70002D02031CBC2FBD2FA32F9430F60086300A
:100F8000F700C230F8000A128A1589260A128A115F
:100F90005130F6008630F7009130F8000A128A15B9
:100FA00089260A128A1183120313AF01B0012F0898
:100FB000D03EA800FF300A128A11E7250A128A11D2
:100FC000013083120313AF070318B00A0030B007D3
:100FD00000303002103003192F02031CF02FF12FC4
:100FE000D72F4D3083120313AC001930AB004F30B4
:100FF000AA00AA0BF92FAB0BF92FAC0BF92F0800A5
:10100000FF1B0A2883137F1883170008840A03191B
:10101000FF0A08007F087F398A000408840A031940
:04102000FF0A820041
:101B2E001E3083120313BE00BD0107151215DD30E2
:101B3E00BF0008008316031308080F398800091127
:101B4E0089100A128A1184250A128A150800831632
:101B5E0003130608073886000808F0398800811339
:101B6E008312031388150815881408140800F2014F
:101B7E0001300A128A15B8260A128A150430F700A7
:101B8E003D30F600F60BC92DF70BC92DCE2D0800F2
:101B9E00F400F301741CD42DD52DD72D7208F30744
:101BAE000310F20D0310F40C7408031DDF2DE02D4D
:101BBE00D12D7308080083120313121392121212FE
:101BCE009211121192101210831603138C14831299
:101BDE0003138C10FA3083160313920008000A12B6
:101BEE008A15A1250A128A150A128A15AE250A121D
:101BFE008A15831603130711831203130711831615
:101C0E00031387108312031387100A128A15E22515
:101C1E000A128A150B178B170800F4000A128A1184
:101C2E00F3260A128A15F5007408031D1F2E202EA6
:101C3E00222E7508362E750A0319262E272E2E2EC5
:101C4E007B0803192B2E2C2E2E2EFB01202E750A0F
:101C5E00031D322E332E352E0130FB00FF300800CF
:101C6E00F601F701721C3C2E3D2E432E7408F6072A
:101C7E000318F70A7508F70701300310F40DF50D78
:101C8E00FF3E031D442E01300310F30CF20CFF3EF9
:101C9E00031D4B2E72087304031D562E572E392E1C
:101CAE007708F3007608F2000800C430F60086309C
:101CBE00F7008030F8000A128A1589260A128A1552
:101CCE00BC30F6008630F700C030F8000A128A15D4
:101CDE0089260A128A156E30F6008630F70090308B
:101CEE00F8000A128A1589260A128A15CC30F600D7
:101CFE008630F700D030F8000A128A1589260A12AB
:101D0E008A150800F20178080A128A15B8260A12F6
:101D1E008A15A72EF201F20A7708FF0076088400D2
:101D2E000A128A1500200A128A150A128A15B82676
:101D3E000A128A150130F6070318F70A0030F70762
:101D4E00770883120313FF00760884000A128A159F
:101D5E0000200A128A15003A031DB62EB72E912EB8
:101D6E000800F5007218BC2EC02E8312031309153D
:101D7E00C32E8312031309117508F03988008914D4
:101D8E00A630F300F30BC92E000083120313891043
:101D9E0075080F39F30003300310F30DFF3E031DDA
:101DAE00D32E0310730D88008914A630F300F30BA5
:101DBE00DE2E00008312031389101B30F4009E30B8
:101DCE00F300F30BE82EF40BE82E0000080083124C
:101DDE000313200821040319F52EF62E232F0130AC
:101DEE00A400022F01300310A00DA10DFF3E031D14
:101DFE00FA2E0130A407A11F052F062FF92E210858
:101E0E002302031D0C2F20082202031C0F2F102F5C
:101E1E00162F2008A2022108031CA303A3020130DF
:101E2E000310A10CA00CFF3E031D172F0130A402BE
:101E3E00031D222F232F062F2308A1002208A00006
:101E4E000800831203138C1C2D2F2E2F5E2F0130B2
:101E5E00F9070318FA0A0030FA07203079064E30D7
:101E6E0003197A06031D3C2F3D2F5D2FF901FA0150
:101E7E003E080319432F442F472F0130BE025D2F1A
:101E8E003E08031D4B2F4C2F552F3D080319502F85
:101E9E00512F552FBD013C30BE005D2F3C0803195C
:101EAE00592F5A2F5D2F0130BC025D2F8C107108F7
:101EBE008A00700E8300FE0E7E0E0900F601F701F9
:101ECE007208730403196C2F6D2FA22F0130F800C6
:101EDE00792F01300310F20DF30DFF3E031D712F0C
:101EEE000130F807F31F7C2F7D2F702F0130031068
:101EFE00F60DF70DFF3E031D7E2F73087502031DB1
:101F0E008A2F72087402031C8D2F8E2F952F720844
:101F1E00F4027308031CF503F50276140130031066
:101F2E00F30CF20CFF3E031D962F0130F802031D39
:101F3E00A12FA22F7D2F7708F3007608F20008005C
:101F4E00F70183120313A71FAD2FAE2FB52FA609CE
:101F5E00A709A60A0319A70A0130F700A51FB82F73
:101F6E00B92FBE2FA409A509A40A0319A50A24088E
:101F7E0025040319C32FC42FF12F0130F600D02FE3
:101F8E0001300310A40DA50DFF3E031DC82F013017
:101F9E00F607A51FD32FD42FC72F25082702031D01
:101FAE00DA2F24082602031CDD2FDE2FE42F24084F
:101FBE00A6022508031CA703A70201300310A50CD7
:101FCE00A40CFF3E031DE52F0130F602031DF02F7A
:101FDE00F12FD42F77080319F52FF62FFB2FA60913
:101FEE00A709A60A0319A70A2708A5002608A40010
:021FFE000800D9
:02400E00FB3F76
:00000001FF
